{
  "_format": "hh-sol-artifact-1",
  "contractName": "HealthRecords",
  "sourceName": "contracts/HealthRecords.sol",
  "abi": [
    {
      "inputs": [
        {
          "internalType": "address",
          "name": "_patient",
          "type": "address"
        },
        {
          "internalType": "string",
          "name": "metahash",
          "type": "string"
        }
      ],
      "name": "createMedicalRecord",
      "outputs": [],
      "stateMutability": "nonpayable",
      "type": "function"
    },
    {
      "inputs": [
        {
          "internalType": "address",
          "name": "_doctor",
          "type": "address"
        },
        {
          "internalType": "string",
          "name": "metahash",
          "type": "string"
        },
        {
          "internalType": "int256",
          "name": "expiryTime",
          "type": "int256"
        }
      ],
      "name": "createRecordCopy",
      "outputs": [],
      "stateMutability": "nonpayable",
      "type": "function"
    },
    {
      "inputs": [
        {
          "internalType": "address",
          "name": "_address",
          "type": "address"
        }
      ],
      "name": "getValidRecords",
      "outputs": [
        {
          "components": [
            {
              "internalType": "address",
              "name": "patient",
              "type": "address"
            },
            {
              "internalType": "uint256",
              "name": "creationTime",
              "type": "uint256"
            },
            {
              "internalType": "int256",
              "name": "expiryTime",
              "type": "int256"
            },
            {
              "internalType": "string",
              "name": "metahash",
              "type": "string"
            }
          ],
          "internalType": "struct HealthRecords.MedicalRecord[]",
          "name": "",
          "type": "tuple[]"
        }
      ],
      "stateMutability": "view",
      "type": "function"
    }
  ],
  "bytecode": "0x608060405234801561001057600080fd5b50610fa5806100206000396000f3fe608060405234801561001057600080fd5b50600436106100415760003560e01c806349e354a614610046578063c4b1b20414610062578063e43910f31461007e575b600080fd5b610060600480360381019061005b91906108c2565b6100ae565b005b61007c60048036038101906100779190610931565b6101ec565b005b6100986004803603810190610093919061098d565b610349565b6040516100a59190610b95565b60405180910390f35b6100b6610696565b33816000019073ffffffffffffffffffffffffffffffffffffffff16908173ffffffffffffffffffffffffffffffffffffffff168152505042816020018181525050818160400181815250508281606001819052506000808573ffffffffffffffffffffffffffffffffffffffff1673ffffffffffffffffffffffffffffffffffffffff16815260200190815260200160002081908060018154018082558091505060019003906000526020600020906004020160009091909190915060008201518160000160006101000a81548173ffffffffffffffffffffffffffffffffffffffff021916908373ffffffffffffffffffffffffffffffffffffffff160217905550602082015181600101556040820151816002015560608201518160030190816101e39190610dc3565b50505050505050565b6101f4610696565b82816000019073ffffffffffffffffffffffffffffffffffffffff16908173ffffffffffffffffffffffffffffffffffffffff1681525050428160200181815250507fffffffffffffffffffffffffffffffffffffffffffffffffffffffffffffffff8160400181815250508181606001819052506000808473ffffffffffffffffffffffffffffffffffffffff1673ffffffffffffffffffffffffffffffffffffffff16815260200190815260200160002081908060018154018082558091505060019003906000526020600020906004020160009091909190915060008201518160000160006101000a81548173ffffffffffffffffffffffffffffffffffffffff021916908373ffffffffffffffffffffffffffffffffffffffff160217905550602082015181600101556040820151816002015560608201518160030190816103419190610dc3565b505050505050565b606060008060008473ffffffffffffffffffffffffffffffffffffffff1673ffffffffffffffffffffffffffffffffffffffff168152602001908152602001600020805480602002602001604051908101604052809291908181526020016000905b828210156104d957838290600052602060002090600402016040518060800160405290816000820160009054906101000a900473ffffffffffffffffffffffffffffffffffffffff1673ffffffffffffffffffffffffffffffffffffffff1673ffffffffffffffffffffffffffffffffffffffff168152602001600182015481526020016002820154815260200160038201805461044890610be6565b80601f016020809104026020016040519081016040528092919081815260200182805461047490610be6565b80156104c15780601f10610496576101008083540402835291602001916104c1565b820191906000526020600020905b8154815290600101906020018083116104a457829003601f168201915b505050505081525050815260200190600101906103ab565b50505050905060606000805b835181101561057957600084828151811061050357610502610e95565b5b6020026020010151905060004290507fffffffffffffffffffffffffffffffffffffffffffffffffffffffffffffffff82604001511480610556575080826020015183604001516105549190610ef3565b115b1561056a57838061056690610f27565b9450505b505080806001019150506104e5565b508067ffffffffffffffff81111561059457610593610761565b5b6040519080825280602002602001820160405280156105cd57816020015b6105ba610696565b8152602001906001900390816105b25790505b5091506000905060005b835181101561068a5760008482815181106105f5576105f4610e95565b5b6020026020010151905060004290507fffffffffffffffffffffffffffffffffffffffffffffffffffffffffffffffff82604001511480610648575080826020015183604001516106469190610ef3565b115b1561067b578185858151811061066157610660610e95565b5b6020026020010181905250838061067790610f27565b9450505b505080806001019150506105d7565b50819350505050919050565b6040518060800160405280600073ffffffffffffffffffffffffffffffffffffffff1681526020016000815260200160008152602001606081525090565b6000604051905090565b600080fd5b600080fd5b600073ffffffffffffffffffffffffffffffffffffffff82169050919050565b6000610713826106e8565b9050919050565b61072381610708565b811461072e57600080fd5b50565b6000813590506107408161071a565b92915050565b600080fd5b600080fd5b6000601f19601f8301169050919050565b7f4e487b7100000000000000000000000000000000000000000000000000000000600052604160045260246000fd5b61079982610750565b810181811067ffffffffffffffff821117156107b8576107b7610761565b5b80604052505050565b60006107cb6106d4565b90506107d78282610790565b919050565b600067ffffffffffffffff8211156107f7576107f6610761565b5b61080082610750565b9050602081019050919050565b82818337600083830152505050565b600061082f61082a846107dc565b6107c1565b90508281526020810184848401111561084b5761084a61074b565b5b61085684828561080d565b509392505050565b600082601f83011261087357610872610746565b5b813561088384826020860161081c565b91505092915050565b6000819050919050565b61089f8161088c565b81146108aa57600080fd5b50565b6000813590506108bc81610896565b92915050565b6000806000606084860312156108db576108da6106de565b5b60006108e986828701610731565b935050602084013567ffffffffffffffff81111561090a576109096106e3565b5b6109168682870161085e565b9250506040610927868287016108ad565b9150509250925092565b60008060408385031215610948576109476106de565b5b600061095685828601610731565b925050602083013567ffffffffffffffff811115610977576109766106e3565b5b6109838582860161085e565b9150509250929050565b6000602082840312156109a3576109a26106de565b5b60006109b184828501610731565b91505092915050565b600081519050919050565b600082825260208201905092915050565b6000819050602082019050919050565b6109ef81610708565b82525050565b6000819050919050565b610a08816109f5565b82525050565b610a178161088c565b82525050565b600081519050919050565b600082825260208201905092915050565b60005b83811015610a57578082015181840152602081019050610a3c565b60008484015250505050565b6000610a6e82610a1d565b610a788185610a28565b9350610a88818560208601610a39565b610a9181610750565b840191505092915050565b6000608083016000830151610ab460008601826109e6565b506020830151610ac760208601826109ff565b506040830151610ada6040860182610a0e565b5060608301518482036060860152610af28282610a63565b9150508091505092915050565b6000610b0b8383610a9c565b905092915050565b6000602082019050919050565b6000610b2b826109ba565b610b3581856109c5565b935083602082028501610b47856109d6565b8060005b85811015610b835784840389528151610b648582610aff565b9450610b6f83610b13565b925060208a01995050600181019050610b4b565b50829750879550505050505092915050565b60006020820190508181036000830152610baf8184610b20565b905092915050565b7f4e487b7100000000000000000000000000000000000000000000000000000000600052602260045260246000fd5b60006002820490506001821680610bfe57607f821691505b602082108103610c1157610c10610bb7565b5b50919050565b60008190508160005260206000209050919050565b60006020601f8301049050919050565b600082821b905092915050565b600060088302610c797fffffffffffffffffffffffffffffffffffffffffffffffffffffffffffffffff82610c3c565b610c838683610c3c565b95508019841693508086168417925050509392505050565b6000819050919050565b6000610cc0610cbb610cb6846109f5565b610c9b565b6109f5565b9050919050565b6000819050919050565b610cda83610ca5565b610cee610ce682610cc7565b848454610c49565b825550505050565b600090565b610d03610cf6565b610d0e818484610cd1565b505050565b5b81811015610d3257610d27600082610cfb565b600181019050610d14565b5050565b601f821115610d7757610d4881610c17565b610d5184610c2c565b81016020851015610d60578190505b610d74610d6c85610c2c565b830182610d13565b50505b505050565b600082821c905092915050565b6000610d9a60001984600802610d7c565b1980831691505092915050565b6000610db38383610d89565b9150826002028217905092915050565b610dcc82610a1d565b67ffffffffffffffff811115610de557610de4610761565b5b610def8254610be6565b610dfa828285610d36565b600060209050601f831160018114610e2d5760008415610e1b578287015190505b610e258582610da7565b865550610e8d565b601f198416610e3b86610c17565b60005b82811015610e6357848901518255600182019150602085019450602081019050610e3e565b86831015610e805784890151610e7c601f891682610d89565b8355505b6001600288020188555050505b505050505050565b7f4e487b7100000000000000000000000000000000000000000000000000000000600052603260045260246000fd5b7f4e487b7100000000000000000000000000000000000000000000000000000000600052601160045260246000fd5b6000610efe826109f5565b9150610f09836109f5565b9250828201905080821115610f2157610f20610ec4565b5b92915050565b6000610f32826109f5565b91507fffffffffffffffffffffffffffffffffffffffffffffffffffffffffffffffff8203610f6457610f63610ec4565b5b60018201905091905056fea264697066735822122013526eff47b1603691f28c7a7fb97816cda3c5b2a6be021df43808779a38fd2a64736f6c63430008180033",
  "linkReferences": {},
  "deployedLinkReferences": {}
}