{
  "_format": "hh-sol-artifact-1",
  "contractName": "HealthRecords",
  "sourceName": "contracts/HealthRecords.sol",
  "abi": [
    {
      "inputs": [
        {
          "internalType": "address",
          "name": "_patient",
          "type": "address"
        },
        {
          "internalType": "string",
          "name": "hash",
          "type": "string"
        },
        {
          "internalType": "string",
          "name": "fileName",
          "type": "string"
        }
      ],
      "name": "createMedicalRecord",
      "outputs": [],
      "stateMutability": "nonpayable",
      "type": "function"
    },
    {
      "inputs": [
        {
          "internalType": "address",
          "name": "_doctor",
          "type": "address"
        },
        {
          "internalType": "string",
          "name": "metahash",
          "type": "string"
        },
        {
          "internalType": "int256",
          "name": "expiryTime",
          "type": "int256"
        }
      ],
      "name": "createRecordCopy",
      "outputs": [],
      "stateMutability": "nonpayable",
      "type": "function"
    },
    {
      "inputs": [],
      "name": "getValidRecords",
      "outputs": [
        {
          "components": [
            {
              "internalType": "address",
              "name": "patient",
              "type": "address"
            },
            {
              "internalType": "uint256",
              "name": "creationTime",
              "type": "uint256"
            },
            {
              "internalType": "string",
              "name": "metahash",
              "type": "string"
            },
            {
              "internalType": "address",
              "name": "creator",
              "type": "address"
            },
            {
              "internalType": "string",
              "name": "fileName",
              "type": "string"
            }
          ],
          "internalType": "struct HealthRecords.MedicalRecord[]",
          "name": "",
          "type": "tuple[]"
        }
      ],
      "stateMutability": "view",
      "type": "function"
    },
    {
      "inputs": [],
      "name": "getValidSharedRecords",
      "outputs": [
        {
          "components": [
            {
              "internalType": "address",
              "name": "patient",
              "type": "address"
            },
            {
              "internalType": "uint256",
              "name": "creationTime",
              "type": "uint256"
            },
            {
              "internalType": "int256",
              "name": "expiryTime",
              "type": "int256"
            },
            {
              "internalType": "string",
              "name": "metahash",
              "type": "string"
            }
          ],
          "internalType": "struct HealthRecords.SharedRecord[]",
          "name": "",
          "type": "tuple[]"
        }
      ],
      "stateMutability": "view",
      "type": "function"
    }
  ],
  "bytecode": "0x608060405234801561001057600080fd5b506113fe806100206000396000f3fe608060405234801561001057600080fd5b506004361061004c5760003560e01c806349e354a61461005157806350d903611461006d57806374f5e7a91461008957806387415f5e146100a7575b600080fd5b61006b60048036038101906100669190610bb8565b6100c5565b005b61008760048036038101906100829190610c27565b610204565b005b6100916103cc565b60405161009e9190610e98565b60405180910390f35b6100af610641565b6040516100bc9190610fee565b60405180910390f35b6100cd610931565b33816000019073ffffffffffffffffffffffffffffffffffffffff16908173ffffffffffffffffffffffffffffffffffffffff16815250504281602001818152505081816040018181525050828160600181905250600160008573ffffffffffffffffffffffffffffffffffffffff1673ffffffffffffffffffffffffffffffffffffffff16815260200190815260200160002081908060018154018082558091505060019003906000526020600020906004020160009091909190915060008201518160000160006101000a81548173ffffffffffffffffffffffffffffffffffffffff021916908373ffffffffffffffffffffffffffffffffffffffff160217905550602082015181600101556040820151816002015560608201518160030190816101fb919061121c565b50505050505050565b61020c61096f565b83816000019073ffffffffffffffffffffffffffffffffffffffff16908173ffffffffffffffffffffffffffffffffffffffff16815250504281602001818152505082816040018190525033816060019073ffffffffffffffffffffffffffffffffffffffff16908173ffffffffffffffffffffffffffffffffffffffff16815250508181608001819052506000808573ffffffffffffffffffffffffffffffffffffffff1673ffffffffffffffffffffffffffffffffffffffff16815260200190815260200160002081908060018154018082558091505060019003906000526020600020906005020160009091909190915060008201518160000160006101000a81548173ffffffffffffffffffffffffffffffffffffffff021916908373ffffffffffffffffffffffffffffffffffffffff160217905550602082015181600101556040820151816002019081610366919061121c565b5060608201518160030160006101000a81548173ffffffffffffffffffffffffffffffffffffffff021916908373ffffffffffffffffffffffffffffffffffffffff16021790555060808201518160040190816103c3919061121c565b50505050505050565b60606000803373ffffffffffffffffffffffffffffffffffffffff1673ffffffffffffffffffffffffffffffffffffffff168152602001908152602001600020805480602002602001604051908101604052809291908181526020016000905b8282101561063857838290600052602060002090600502016040518060a00160405290816000820160009054906101000a900473ffffffffffffffffffffffffffffffffffffffff1673ffffffffffffffffffffffffffffffffffffffff1673ffffffffffffffffffffffffffffffffffffffff168152602001600182015481526020016002820180546104bf9061103f565b80601f01602080910402602001604051908101604052809291908181526020018280546104eb9061103f565b80156105385780601f1061050d57610100808354040283529160200191610538565b820191906000526020600020905b81548152906001019060200180831161051b57829003601f168201915b505050505081526020016003820160009054906101000a900473ffffffffffffffffffffffffffffffffffffffff1673ffffffffffffffffffffffffffffffffffffffff1673ffffffffffffffffffffffffffffffffffffffff1681526020016004820180546105a79061103f565b80601f01602080910402602001604051908101604052809291908181526020018280546105d39061103f565b80156106205780601f106105f557610100808354040283529160200191610620565b820191906000526020600020905b81548152906001019060200180831161060357829003601f168201915b5050505050815250508152602001906001019061042c565b50505050905090565b60606000600160003373ffffffffffffffffffffffffffffffffffffffff1673ffffffffffffffffffffffffffffffffffffffff168152602001908152602001600020805480602002602001604051908101604052809291908181526020016000905b828210156107d257838290600052602060002090600402016040518060800160405290816000820160009054906101000a900473ffffffffffffffffffffffffffffffffffffffff1673ffffffffffffffffffffffffffffffffffffffff1673ffffffffffffffffffffffffffffffffffffffff16815260200160018201548152602001600282015481526020016003820180546107419061103f565b80601f016020809104026020016040519081016040528092919081815260200182805461076d9061103f565b80156107ba5780601f1061078f576101008083540402835291602001916107ba565b820191906000526020600020905b81548152906001019060200180831161079d57829003601f168201915b505050505081525050815260200190600101906106a4565b50505050905060606000805b83518110156108445760008482815181106107fc576107fb6112ee565b5b6020026020010151905060004290508082602001518360400151610820919061134c565b111561083557838061083190611380565b9450505b505080806001019150506107de565b508067ffffffffffffffff81111561085f5761085e610a57565b5b60405190808252806020026020018201604052801561089857816020015b610885610931565b81526020019060019003908161087d5790505b5091506000905060005b83518110156109275760008482815181106108c0576108bf6112ee565b5b60200260200101519050600042905080826020015183604001516108e4919061134c565b111561091857818585815181106108fe576108fd6112ee565b5b6020026020010181905250838061091490611380565b9450505b505080806001019150506108a2565b5081935050505090565b6040518060800160405280600073ffffffffffffffffffffffffffffffffffffffff1681526020016000815260200160008152602001606081525090565b6040518060a00160405280600073ffffffffffffffffffffffffffffffffffffffff1681526020016000815260200160608152602001600073ffffffffffffffffffffffffffffffffffffffff168152602001606081525090565b6000604051905090565b600080fd5b600080fd5b600073ffffffffffffffffffffffffffffffffffffffff82169050919050565b6000610a09826109de565b9050919050565b610a19816109fe565b8114610a2457600080fd5b50565b600081359050610a3681610a10565b92915050565b600080fd5b600080fd5b6000601f19601f8301169050919050565b7f4e487b7100000000000000000000000000000000000000000000000000000000600052604160045260246000fd5b610a8f82610a46565b810181811067ffffffffffffffff82111715610aae57610aad610a57565b5b80604052505050565b6000610ac16109ca565b9050610acd8282610a86565b919050565b600067ffffffffffffffff821115610aed57610aec610a57565b5b610af682610a46565b9050602081019050919050565b82818337600083830152505050565b6000610b25610b2084610ad2565b610ab7565b905082815260208101848484011115610b4157610b40610a41565b5b610b4c848285610b03565b509392505050565b600082601f830112610b6957610b68610a3c565b5b8135610b79848260208601610b12565b91505092915050565b6000819050919050565b610b9581610b82565b8114610ba057600080fd5b50565b600081359050610bb281610b8c565b92915050565b600080600060608486031215610bd157610bd06109d4565b5b6000610bdf86828701610a27565b935050602084013567ffffffffffffffff811115610c0057610bff6109d9565b5b610c0c86828701610b54565b9250506040610c1d86828701610ba3565b9150509250925092565b600080600060608486031215610c4057610c3f6109d4565b5b6000610c4e86828701610a27565b935050602084013567ffffffffffffffff811115610c6f57610c6e6109d9565b5b610c7b86828701610b54565b925050604084013567ffffffffffffffff811115610c9c57610c9b6109d9565b5b610ca886828701610b54565b9150509250925092565b600081519050919050565b600082825260208201905092915050565b6000819050602082019050919050565b610ce7816109fe565b82525050565b6000819050919050565b610d0081610ced565b82525050565b600081519050919050565b600082825260208201905092915050565b60005b83811015610d40578082015181840152602081019050610d25565b60008484015250505050565b6000610d5782610d06565b610d618185610d11565b9350610d71818560208601610d22565b610d7a81610a46565b840191505092915050565b600060a083016000830151610d9d6000860182610cde565b506020830151610db06020860182610cf7565b5060408301518482036040860152610dc88282610d4c565b9150506060830151610ddd6060860182610cde565b5060808301518482036080860152610df58282610d4c565b9150508091505092915050565b6000610e0e8383610d85565b905092915050565b6000602082019050919050565b6000610e2e82610cb2565b610e388185610cbd565b935083602082028501610e4a85610cce565b8060005b85811015610e865784840389528151610e678582610e02565b9450610e7283610e16565b925060208a01995050600181019050610e4e565b50829750879550505050505092915050565b60006020820190508181036000830152610eb28184610e23565b905092915050565b600081519050919050565b600082825260208201905092915050565b6000819050602082019050919050565b610eef81610b82565b82525050565b6000608083016000830151610f0d6000860182610cde565b506020830151610f206020860182610cf7565b506040830151610f336040860182610ee6565b5060608301518482036060860152610f4b8282610d4c565b9150508091505092915050565b6000610f648383610ef5565b905092915050565b6000602082019050919050565b6000610f8482610eba565b610f8e8185610ec5565b935083602082028501610fa085610ed6565b8060005b85811015610fdc5784840389528151610fbd8582610f58565b9450610fc883610f6c565b925060208a01995050600181019050610fa4565b50829750879550505050505092915050565b600060208201905081810360008301526110088184610f79565b905092915050565b7f4e487b7100000000000000000000000000000000000000000000000000000000600052602260045260246000fd5b6000600282049050600182168061105757607f821691505b60208210810361106a57611069611010565b5b50919050565b60008190508160005260206000209050919050565b60006020601f8301049050919050565b600082821b905092915050565b6000600883026110d27fffffffffffffffffffffffffffffffffffffffffffffffffffffffffffffffff82611095565b6110dc8683611095565b95508019841693508086168417925050509392505050565b6000819050919050565b600061111961111461110f84610ced565b6110f4565b610ced565b9050919050565b6000819050919050565b611133836110fe565b61114761113f82611120565b8484546110a2565b825550505050565b600090565b61115c61114f565b61116781848461112a565b505050565b5b8181101561118b57611180600082611154565b60018101905061116d565b5050565b601f8211156111d0576111a181611070565b6111aa84611085565b810160208510156111b9578190505b6111cd6111c585611085565b83018261116c565b50505b505050565b600082821c905092915050565b60006111f3600019846008026111d5565b1980831691505092915050565b600061120c83836111e2565b9150826002028217905092915050565b61122582610d06565b67ffffffffffffffff81111561123e5761123d610a57565b5b611248825461103f565b61125382828561118f565b600060209050601f8311600181146112865760008415611274578287015190505b61127e8582611200565b8655506112e6565b601f19841661129486611070565b60005b828110156112bc57848901518255600182019150602085019450602081019050611297565b868310156112d957848901516112d5601f8916826111e2565b8355505b6001600288020188555050505b505050505050565b7f4e487b7100000000000000000000000000000000000000000000000000000000600052603260045260246000fd5b7f4e487b7100000000000000000000000000000000000000000000000000000000600052601160045260246000fd5b600061135782610ced565b915061136283610ced565b925082820190508082111561137a5761137961131d565b5b92915050565b600061138b82610ced565b91507fffffffffffffffffffffffffffffffffffffffffffffffffffffffffffffffff82036113bd576113bc61131d565b5b60018201905091905056fea26469706673582212207c44e4a4231667f5e8afdd850259f75697373aec2d1f41893fddbac2be40d22764736f6c63430008180033",
  "linkReferences": {},
  "deployedLinkReferences": {}
}